:1000000071C000008FC000008DC000008BC00000D8
:1000100089C0000066C20000D9C1000083C0000092
:1000200081C000007FC000007DC000007BC00000D8
:1000300079C0000077C0000075C0000073C00000E8
:1000400071C000006FC000006DC000006BC00000F8
:1000500069C0000067C0000065C0000063C0000008
:1000600061C000004FC300005DC000005BC0000025
:1000700059C0000057C0000055C0000053C0000028
:1000800051C000004FC000004DC000004BC0000038
:1000900049C0000047C0000045C0000043C0000048
:1000A00041C000003FC000003DC000003BC0000058
:1000B00039C0000037C0000035C0000033C0000068
:1000C00031C000002FC0000097C200002BC000000C
:1000D00029C0000027C0000025C0000023C0000088
:1000E00021C0000011241FBECFEFD1E2DEBFCDBF83
:1000F00000E00CBF12E0A0E0B2E0E0E1FBE200E0D3
:100100000BBF02C007900D92AA34B107D9F722E0C5
:10011000AAE4B2E001C01D92A738B207E1F7C7D345
:100120000C9486156DCF439A089543980895CF9304
:10013000DF93EC0118161906B4F4F5DF2FEF8FE307
:1001400092E0215080409040E1F700C00000EDDFD8
:100150002FEF8FE392E0215080409040E1F700C004
:100160000000219751F7DF91CF91089581B18F6001
:1001700081B982B1807F82B9EAE0F1E08081886153
:100180008083EBE0F1E080818861808308956C9842
:10019000749A08956D98759A0895F894EAE6F0E0D7
:1001A000808181608083EC9A78940895F894EAE6DF
:1001B000F0E0808184608083ED9A789408953B9A82
:1001C00043980895CF93DF93EC0182B180937D0231
:1001D00092B19F7051F460912C0270912D02809128
:1001E0002E0290912F020E94B410CE010E94590C51
:1001F0000E94031280917D0282B9DF91CF91089510
:10020000CF93DF93EC0182B180937D0292B19F7016
:1002100051F460912C0270912D0280912E029091E8
:100220002F020E94B410CE010E94620C0E940312A1
:1002300080917D0282B9DF91CF910895CF93DF93B2
:10024000EC0192B19F7051F460912C0270912D02DB
:1002500080912E0290912F020E94B41082B180935F
:100260007D02CE010E946B0C0E94031280917D02E0
:1002700082B9DF91CF910895CF93DF93EC0192B1D2
:100280009F7051F460912C0270912D0280912E028A
:1002900090912F020E94B41082B180937D02CE0112
:1002A0000E94760C0E94031280917D0282B9DF9138
:1002B000CF91089580E090E00E945B1590934102F9
:1002C0008093400282E090E00E945B1590933F0291
:1002D00080933E0284E090E00E945B1590933D0283
:1002E00080933C0286E090E00E945B1590933B0275
:1002F00080933A020895CF93DF93C0913E02D0914C
:100300003F02609140027091410280E090E00E94C3
:100310006015BE0182E090E00E946015C0913A0233
:10032000D0913B0260913C0270913D0284E090E0EC
:100330000E946015BE0186E090E00E946015DF918A
:10034000CF91089560911002709111028AE090E0BF
:100350000E94601560910E0270910F028CE090E097
:100360000C94601508958AE090E00E945B159093CC
:100370001102809310028CE090E00E945B15909334
:100380000F0280930E020895609116027091170279
:100390008AE290E00E94601560911402709115024B
:1003A0008CE290E00C94601508958AE290E00E943F
:1003B0005B1590931702809316028CE290E00E94E6
:1003C0005B15909315028093140208951F920F926B
:1003D0000FB60F9211240BB60F922F933F934F93AA
:1003E0005F936F937F938F939F93AF93BF93EF939D
:1003F000FF93CF93DF931F92CDB7DEB78091690251
:1004000090916A02019690936A02809369028091AA
:100410006502909166020196909366028093650250
:1004200080914C0290914D02019690934D028093E1
:100430004C0280914A0290914B02019690934B029C
:1004400080934A0282B18F70898380915902909182
:100450005A02019781F18981863019F089818930AA
:1004600051F580916B0290916C02019690936C0211
:1004700080936B0220916B0230916C028091380264
:100480009091390228173907B1F481E090E09093F8
:100490005A02809359028091610290916202909376
:1004A0005E0280935D0280915702909158020197FD
:1004B00011F40E94C9100F90DF91CF91FF91EF913D
:1004C000BF91AF919F918F917F916F915F914F916C
:1004D0003F912F910F900BBE0F900FBE0F901F906A
:1004E00018951F920F920FB60F9211240BB60F9210
:1004F0002F933F934F935F936F937F938F939F932C
:10050000AF93BF93EF93FF93CF93DF931F92CDB73A
:10051000DEB780916702909168020196909368021D
:100520008093670280916302909164020196909398
:10053000640280936302809150029091510201966F
:10054000909351028093500280914E0290914F02FD
:10055000019690934F0280934E0282B18F708983EF
:100560008091570290915802019781F189818630DC
:1005700019F08981893051F580916D0290916E0258
:10058000019690936E0280936D0220916D023091DE
:100590006E02809138029091390228173907B1F420
:1005A00081E090E09093580280935702809161021D
:1005B0009091620290935C0280935B028091590259
:1005C00090915A02019711F40E94C9100F90DF9187
:1005D000CF91FF91EF91BF91AF919F918F917F91BB
:1005E0006F915F914F913F912F910F900BBE0F90A4
:1005F0000FBE0F901F9018951F920F920FB60F927B
:1006000011240BB60F922F933F934F935F936F93E9
:100610007F938F939F93AF93BF93EF93FF93CF936A
:10062000DF931F92CDB7DEB782B18F70898380913F
:100630005F029091600201969093600280935F0246
:100640008981863019F08981893049F4809161026D
:100650009091620201969093620280936102809170
:10066000520290915302843F914090F48091520243
:10067000909153020196909353028093520280917D
:10068000520290915302843F914011F40E9409124A
:100690000F90DF91CF91FF91EF91BF91AF919F911B
:1006A0008F917F916F915F914F913F912F910F901B
:1006B0000BBE0F900FBE0F901F901895E1E0F1E078
:1006C00080818C608083E2E0F1E08081837F8083A1
:1006D0009A9AA2980895E2E0F1E080818C6080838C
:1006E000A29A0895E1ECF0E010821092C00086E03A
:1006F0008093C2008FE58093C4001092C50088E902
:10070000808308951F920F920FB60F9211240BB69B
:100710000F922F933F934F935F936F937F938F939A
:100720009F93AF93BF93EF93FF938091C600809305
:100730007E02809155029091560201969093560246
:100740008093550280917E02803209F428D6FF9171
:10075000EF91BF91AF919F918F917F916F915F9139
:100760004F913F912F910F900BBE0F900FBE0F90A6
:100770001F901895982F907F9093540298B19F7076
:1007800098B928B190915402922B98B94098419809
:10079000429AEFEFF7E43197F1F700C0000042987A
:1007A00098B19F7098B998B18295807F892B88B94C
:1007B00040984198429A8FEF97E40197F1F700C073
:1007C00000004298089587B1876F87B988B1807813
:1007D00088B9089586E69EE00197F1F700004098F9
:1007E000419880E388B9429AEFEFF7E43197F1F747
:1007F00000C000004298E6E6FEE03197F1F7000005
:100800004098419888B9429AEFEFF7E43197F1F7B1
:1008100000C000004298E6E6FEE03197F1F70000E4
:100820004098419888B9429A8FEF97E40197F1F781
:1008300000C000004298E6E6FEE03197F1F70000C4
:100840004098419880E288B9429A86E69EE00197F6
:10085000F1F700004298E6E6FEE03197F1F700007C
:1008600088E288DF81E086DF86E084DF8EE082DF59
:1008700080E880CF08957ADC8ADC8CDCA4DF1EDF80
:100880009ECC0895F894F7DF0E94810C86DC8EDC04
:100890000E940E130E944D130E94311323DF9ADF32
:1008A000E3E7F0E080818160808378940895CF93BE
:1008B000DF9300D01F92CDB7DEB781E090E037DC48
:1008C000E1DF09DFF7DC4FDD70DD60913E02709102
:1008D0003F0280914002909141020E94B4100E9418
:1008E000CF0D809137020E94960C809133020E94B6
:1008F000D00C2FEF3FEF8CE2215030408040E1F7E9
:1009000000C000000E940A0D0E94180D0E94260DD2
:100910000F2EF6EC4F2E512CF02D1EE70F2EFBEC78
:100920007F2EF02D0CE70F2EF4EB8F2E912CF02D57
:100930000F2EFAE5EF2EF12CF02DAA24A394B12C62
:100940008091550290915602892BD1F380917E02BD
:10095000803211F424D5F5C480917E028B3641F4A7
:1009600080911A0290911B022DDCF2011083E9C4E0
:1009700080917E028C3641F480911A0290911B0284
:100980003FDCF2011083DDC480917E028F3641F49A
:1009900080911C0290911D0215DCF2011083D1C4DC
:1009A00080917E02803741F480911C0290911D025B
:1009B00027DCF2011083C5C480917E028B3441F4A0
:1009C00080911A0290911B0239DCF2011083B9C4A4
:1009D00080917E028C3441F480911A0290911B0226
:1009E0004BDCF2011083ADC480917E028F3441F460
:1009F00080911C0290911D0221DCF2011083A1C4A0
:100A000080917E02803541F480911C0290911D02FC
:100A100033DCF201108395C480917E02843769F43F
:100A20008091000290910102BC010E94B41085E007
:100A300090E081D6F201008384C480917E028937E0
:100A400069F48091000290910102BC010E94B410EF
:100A500083E090E070D6F201008373C480917E023F
:100A6000873669F48091000290910102BC010E94D6
:100A7000B41085E090E068D6F201008362C48091F2
:100A80007E02883669F48091000290910102BC01D7
:100A90000E94B41083E090E057D6F201008351C465
:100AA00080917E02873761F460913E0270913F022F
:100AB00080914002909141020E94B4105ED441C4E2
:100AC00080917E02853609F08FC0B0927002A092AC
:100AD0006F0260913E0270913F02C0904002D09040
:100AE000410280E090E00E946A1420E030E040E49F
:100AF0005FE30E94F8140E943E1469837A838B831B
:100B00009C83B60180E090E00E946A1420E030E00F
:100B100040E45FE30E94F8140E943E14DC01CB0124
:100B200069817A810E94B41080911E0290911F0207
:100B300002D6FFEF2FE73DE0F15020403040E1F7D3
:100B400000C0000080910A0290910B02F701E81B9F
:100B5000F90BCF01AED6FFEF2FE73DE0F15020407B
:100B60003040E1F700C0000060913A0270913B0212
:100B7000C0903C02D0903D0280E090E00E946A1458
:100B800020E030E040E45FE30E94F8140E943E144D
:100B900069837A838B839C83B60180E090E00E9416
:100BA0006A1420E030E040E45FE30E94F8140E9401
:100BB0003E14DC01CB0169817A810E94B4108091DE
:100BC0001E0290911F02C0D58FEF9FE7EDE081508C
:100BD0009040E040E1F700C00000109270021092D7
:100BE0006F02F2011083ADC380917E02823709F05B
:100BF0008FC0B0927002A0926F0260913E0270911D
:100C00003F02C0904002D090410280E090E00E94FC
:100C10006A1420E030E040E45FE30E94F8140E9490
:100C20003E1469837A838B839C83B60180E090E0D5
:100C30000E946A1420E030E040E45FE30E94F81470
:100C40000E943E14DC01CB0169817A810E94B410BC
:100C500080911E0290911F026ED5FFEF2FE73DE0BD
:100C6000F15020403040E1F700C0000080910A02BE
:100C700090910B02F701E81BF90BCF0123D6FFEF90
:100C80002FE73DE0F15020403040E1F700C0000088
:100C900060913A0270913B02C0903C02D0903D02BC
:100CA00080E090E00E946A1420E030E040E45FE3DE
:100CB0000E94F8140E943E1469837A838B839C837C
:100CC000B60180E090E00E946A1420E030E040E449
:100CD0005FE30E94F8140E943E14DC01CB0169819D
:100CE0007A810E94B41080911E0290911F022CD52F
:100CF0008FEF9FE7EDE081509040E040E1F700C0CA
:100D000000001092700210926F02F201108319C35A
:100D100080917E02833761F460913A0270913B02C8
:100D200080913C0290913D020E94B41029D309C3E6
:100D300080917E02843571F40E94F6116091140254
:100D40007091150280911602909117020E94B410C2
:100D50001DD3F7C280917E02873471F40E94F61190
:100D60006091140270911502809116029091170201
:100D70000E94B41008D3E5C280917E02853471F4DC
:100D80000E94F61160910E0270910F028091100284
:100D9000909111020E94B410F0D2D3C280917E02D1
:100DA000863471F40E94F61160910E0270910F0268
:100DB00080911002909111020E94B410E1D2C1C240
:100DC00080917E028E3309F04AC00E94F611609134
:100DD00014027091150280911602909117020E94E0
:100DE000B410D4D2FFEF2FEF38E0F1502040304064
:100DF000E1F700C0000080917E028E3349F5109229
:100E000051021092500210924D0210924C02109218
:100E1000600210925F0220911802309119028091B5
:100E20005F02909160028217930720F480917E0206
:100E30008E33A9F360914C0270914D028091500263
:100E4000909151020E94A11280917E028E33B9F2DC
:100E500080917E02803209F074C2A1D272C2809168
:100E60007E028C3309F04AC00E94F6116091140290
:100E70007091150280911602909117020E94B41091
:100E800082D28FEF9FEFE8E081509040E040E1F7A1
:100E900000C0000080917E028C3349F5109251020F
:100EA0001092500210924D0210924C021092600269
:100EB00010925F02209118023091190280915F0216
:100EC000909160028217930720F480917E028C3308
:100ED000A9F360914C0270914D0280915002909163
:100EE00051020E94A11280917E028C33B9F280914E
:100EF0007E02803209F025C252D223C280917E0246
:100F00008A3309F041C00E94F61160910E0270917F
:100F10000F0280911002909111020E94B4102DD204
:100F200080917E028A3349F510924F0210924E0250
:100F300010924B0210924A021092600210925F02CD
:100F4000209112023091130280915F029091600211
:100F50008217930720F480917E028A33A9F360916F
:100F60004A0270914B0280914E0290914F020E9472
:100F7000341280917E028A33B9F280917E028032EF
:100F800009F0DFC10CD2DDC180917E028B3309F004
:100F900041C00E94F61160910E0270910F02809183
:100FA0001002909111020E94B410EAD180917E0249
:100FB0008B3349F510924F0210924E0210924B0261
:100FC00010924A021092600210925F022091120267
:100FD0003091130280915F02909160028217930713
:100FE00020F480917E028B33A9F360914A027091C4
:100FF0004B0280914E0290914F020E9434128091D8
:101000007E028B33B9F280917E02803209F099C161
:10101000C6D197C180917E028136A9F480910A02DF
:1010200090910B029701281B390BC90142D43FEF65
:101030008FE392E0315080409040E1F700C0000023
:10104000F20110837EC180917E028436A9F48091E2
:101050000802909109029701281B390BC90132D46B
:101060003FEF8FE392E0315080409040E1F700C0C5
:101070000000F201108365C180917E028134A9F4E1
:1010800080910602909107029401281B390BC90137
:1010900010D43FEF8FE392E0315080409040E1F771
:1010A00000C00000F20110834CC180917E028434A4
:1010B000A9F480910402909105029401281B390B38
:1010C000C90100D43FEF8FE392E03150804090405F
:1010D000E1F700C00000F201108333C180917E026D
:1010E000807F803319F580917E028F7090E00A979F
:1010F000ECF480917E028F70C9F080917E028F7037
:10110000789EC001112420910C0230910D02821BA7
:10111000930B11D3FFEF2FE332E0F150204030402A
:10112000E1F700C00000F20100830BC180917E0254
:10113000807F803219F580917E028F7090E00A974F
:10114000ECF480917E028F70C9F080917E028F70E6
:10115000789EC001112420910C0230910D02821B57
:10116000930BF2D2FFEF2FE332E0F15020403040FA
:10117000E1F700C00000F2010083E3C080917E022D
:101180008D3621F4A3D7F2011083DBC080917E025B
:101190008E3621F4BAD7F2011083D3C080917E023B
:1011A000853721F453D4F2011083CBC080917E02A5
:1011B000853521F4BCD4F2011083C3C080917E0236
:1011C000893621F47BD4F2011083BBC080917E026A
:1011D000893421F4E4D4F2011083B3C080917E02FB
:1011E000823621F4B5D5F2011083ABC080917E0226
:1011F000863721F4F2D5F2011083A3C080917E02DC
:101200008A3721F430D6F20110839BC080917E0290
:10121000883721F456D6F201108393C080917E0264
:101220008D3311F409D58DC080917E028B3219F473
:10123000EFD4F0D386C080917E028F3519F410D59B
:10124000E9D37FC080917E028D3211F41DD579C023
:1012500080917E028D3511F43FD573C080917E025E
:101260008B3511F461D56DC080917E028D3719F4F4
:101270001FD5D0D366C080917E028B3719F440D53C
:10128000C9D35FC080917E028C3219F40E94930012
:1012900058C080917E028E3219F40E94950051C090
:1012A00080917E02863521F431D6F201108349C047
:1012B00080917E02823421F44ED6F201108341C027
:1012C00080917E028D3421F4FBD6F201108339C067
:1012D00080917E028E3421F4F6D6F201108331C063
:1012E00080917E02833621F45BD6F201108329C0FF
:1012F00080917E02833421F456D6F201108321C0FE
:1013000080917E02883521F451D6F201108319C0F4
:1013100080917E028A3521F48ED6F201108311C0AD
:1013200080917E02823529F40E945A013ED81BD852
:1013300008C080917E02873521F40E947B0102D88B
:1013400023D88091550290915602019790935602AE
:10135000809355028091020290910302019709F057
:10136000EFCAACD31092030210920202E9CA92B102
:10137000907F8F70982B92B9089586E0F8CF0895EA
:1013800089E0F5CF089585E0F2CF08958AE0EFCFA8
:10139000089584E0ECCF089582E0E9CF089580E0DD
:1013A000E6CF08954F925F926F927F928F929F92B5
:1013B000AF92BF92CF92DF92EF92FF920F931F9363
:1013C000CF93DF936C011092660210926502109227
:1013D0006402109263020E94F611B601660F771F35
:1013E00080E090E00E946A1425EE30ED4AEA50E475
:1013F0000E94D1130E943E148B0182B18F708630FF
:1014000029F52CE3C216D10488F080916F029091E7
:101410007002019709F43FC060913E0270913F0253
:1014200080914002909141029FD635C080916F0219
:1014300090917002019779F160913E0270913F02A4
:1014400080914002909141028FD625C0893019F5D4
:101450003CE3C316D10480F080916F02909170023A
:101460000197C9F060913A0270913B0280913C0271
:1014700090913D0279D60FC080916F0290917002D9
:10148000019749F060913A0270913B0280913C02D1
:1014900090913D0269D6B7D7409048020F2EF6ECE6
:1014A000EF2EF12CF02D542C642C742C842C942CC5
:1014B000A42CB42C22C18091650290916602C09147
:1014C0006302D0916402C80FD91FD695C795809149
:1014D000240290912502F801E81BF90BEC17FD0797
:1014E00050F484D7609120027091210280912202F1
:1014F0009091230239D60C171D0708F403C180917F
:1015000055029091560202970CF4F7C080917E022A
:101510008B36D9F480911A0290911B020E94E2004E
:10152000FFEF2FE332E0F15020403040E1F700C000
:101530000000F701B0828091550290915602019708
:101540009093560280935502D8C080917E028C36CB
:10155000D9F480911A0290911B020E940001FFEFC2
:101560002FE332E0F15020403040E1F700C00000AE
:10157000F701A082809155029091560201979093B5
:10158000560280935502B9C080917E028F36D9F4FD
:1015900080911C0290911D020E94E200FFEF2FE358
:1015A00032E0F15020403040E1F700C00000F70188
:1015B0009082809155029091560201979093560225
:1015C000809355029AC080917E028037D9F4809131
:1015D0001C0290911D020E940001FFEF2FE332E0F8
:1015E000F15020403040E1F700C00000F701808258
:1015F00080915502909156020197909356028093E4
:1016000055027BC080917E028B34D9F480911A02FE
:1016100090911B020E941E01FFEF2FE332E0F15078
:1016200020403040E1F700C00000F7017082809157
:10163000550290915602019790935602809355025D
:101640005CC080917E028C34D9F480911A02909112
:101650001B020E943C01FFEF2FE332E0F1502040DB
:101660003040E1F700C00000F70160828091550230
:1016700090915602019790935602809355023DC077
:1016800080917E028F34D9F480911C0290911D02CA
:101690000E941E01FFEF2FE332E0F1502040304066
:1016A000E1F700C00000F70150828091550290914F
:1016B0005602019790935602809355021EC0809166
:1016C0007E028035D1F480911C0290911D020E940F
:1016D0003C01FFEF2FE332E0F15020403040E1F7D2
:1016E00000C00000F701408280915502909156029F
:1016F0000197909356028093550280917E0280322A
:1017000009F0D9CE4CDEF8EECF16F3E0DF0610F08C
:101710000E947B01DF91CF911F910F91FF90EF907D
:10172000DF90CF90BF90AF909F908F907F906F9001
:101730005F904F900895CF93DF93EC011EDECE01B2
:1017400031DEDF91CF910895CF93DF93EC0118DE66
:10175000CE0128DEDF91CF910895AF92BF92CF9254
:10176000DF92EF92FF920F931F93CF93DF936C0161
:10177000BC0180E090E00E946A149B01AC01ADD7EF
:1017800028E431EE42E850E40E94D1130E943E1456
:10179000EB0110926A021092690210926802109294
:1017A00067028DE2C816D10420F160912C0270917D
:1017B0002D0280912E0290912F02D6D48091260284
:1017C00090912702B601681B790B072E000C880B3D
:1017D000990B0E946C149B01AC017FD728E431EE79
:1017E00042E850E4DED70E9439148B0141E050E01A
:1017F00004C000E010E040E050E07801A12CB12CE2
:101800002BC08091690290916A0220916702309109
:101810006802280F391F369527952C173D0700F5CC
:1018200041305105C9F48091690290916A02801794
:10183000910738F480916702909168028E159F0598
:1018400058F0609128027091290280912A029091AB
:101850002B028AD44A2D5B2D80917E02803289F63C
:101860009EDD82B196E4C916D104C0F08F70863037
:1018700051F460913E0270913F028091400290913C
:10188000410272D40BC0893049F460913A027091E0
:101890003B0280913C0290913D0266D4DF91CF9152
:1018A0001F910F91FF90EF90DF90CF90BF90AF907E
:1018B0000895CF93DF93EC0166DDCE014EDFDF911B
:1018C000CF910895CF93DF93EC0160DDCE0145DF2A
:1018D000DF91CF910895CF93DF93EC015ADDCE01D4
:1018E000880F991F3ADFDF91CF910895CF93DF934F
:1018F000EC0152DDCE01880F991F2FDFDF91CF91D0
:101900000895259A2D9A269A2E9AA1E0B1E08C91FD
:1019100080618C93E2E0F1E08081806180838C9132
:1019200080628C93808180628083089590913602DA
:101930009817C0F0909172028917A0F010928B0056
:10194000682F70E080E090E0C5D72BE734E14EEEE1
:101950005FE327D720E030E04CE052E4BED68ED7DC
:1019600060938A000895909135029817C0F0909185
:1019700034028917A0F010928900682F70E080E08F
:1019800090E0A8D72BE734E14EEE5FE30AD720E0E2
:1019900030E04CE052E4A1D671D7609388000895FE
:1019A000909132029817C0F0909171028917A0F0BF
:1019B0001092AD00682F70E080E090E08BD72BE7AD
:1019C00034E14EEE5FE3EDD620E030E04CE052E44F
:1019D00084D654D76093AC00089590913102981743
:1019E000C0F0909130028917A0F01092AB00682FE0
:1019F00070E080E090E06ED72BE734E14EEE5FE3DD
:101A0000D0D620E030E04CE052E467D637D7609380
:101A1000AA00089583E080938B008FEF80938A0063
:101A2000089583E0809389008FEF80938800089564
:101A300083E08093AD008FEF8093AC00089583E046
:101A40008093AB008FEF8093AA000895CF93DF932C
:101A50002091350230E03093820220938102809100
:101A60007702909178022817390729F1C7E7D2E069
:101A70008217930734F4019690937802809377024B
:101A800008C0281739072CF40197909378028093A7
:101A90007702888168DF89E999E30197F1F700C04F
:101AA0002091810230918202809177029091780298
:101AB00028173907E9F6DF91CF910895CF93DF9387
:101AC0002091340230E03093820220938102809191
:101AD0007702909178022817390729F1C7E7D2E0F9
:101AE0002817390734F4019790937802809377028E
:101AF00008C0821793072CF4019690937802809384
:101B00007702888130DF89E999E30197F1F700C016
:101B10002091810230918202809177029091780227
:101B200028173907E9F67DDFDF91CF910895CF932C
:101B3000DF932091300230E03093840220938302BF
:101B400080917302909174022817390729F1C3E735
:101B5000D2E08217930734F4019690937402809335
:101B6000730208C0281739072CF401979093740268
:101B700080937302888131DF89E999E30197F1F756
:101B800000C0209183023091840280917302909171
:101B9000740228173907E9F6DF91CF910895CF93A2
:101BA000DF932091310230E030938402209383024E
:101BB00080917302909174022817390729F1C3E7C5
:101BC000D2E02817390734F4019790937402809378
:101BD000730208C0821793072CF401969093740245
:101BE000809373028881F9DE89E999E30197F1F71F
:101BF00000C0209183023091840280917302909101
:101C0000740228173907E9F61ADFDF91CF9108959A
:101C1000809175029091760201969093760280935E
:101C2000750284DE2FEF8FE794E0215080409040D2
:101C3000E1F700C00000089580917702909178024A
:101C4000019690937802809377028DDE2FEF8FE7D5
:101C500094E0215080409040E1F700C000000895DA
:101C6000809175029091760201979093760280930D
:101C700075025CDE2FEF8FE794E0215080409040AA
:101C8000E1F700C0000008958091770290917802FA
:101C90000197909378028093770265DE2FEF8FE7AC
:101CA00094E0215080409040E1F700C0000008958A
:101CB00080917502909176020A96909376028093B5
:101CC000750234DE2FEF8FE79DE021508040904079
:101CD000E1F700C0000008958091770290917802AA
:101CE0000A9690937802809377023DDE2FEF8FEF74
:101CF00098E0215080409040E1F700C00000089536
:101D000080917502909176020A9790937602809363
:101D100075020CDE2FEF8FE79DE021508040904050
:101D2000E1F700C000000895809177029091780259
:101D30000A97909378028093770215DE2FEF8FEF4A
:101D400098E0215080409040E1F700C000000895E5
:101D50007DDE2FEF8FEF98E0215080409040E1F73B
:101D600000C0000080913602E1DD2FEF8FEF93E29B
:101D7000215080409040E1F700C000009FDE2FEF2F
:101D80008FE794E0215080409040E1F700C00000D0
:101D900080917202CBDD2FEF8FE793E421508040DA
:101DA0009040E1F700C0000051DE2FEF8FE794E094
:101DB000215080409040E1F700C000008091370240
:101DC000B5DD2FEF8FEF9CE2215080409040E1F78E
:101DD00000C0000073DE1ECE089538DE2FEF8FEFB7
:101DE00098E0215080409040E1F700C000008091D1
:101DF00072029CDD2FEF8FEF93E2215080409040E4
:101E0000E1F700C000005ADE2FEF8FE794E0215089
:101E100080409040E1F700C000008091360286DDEE
:101E20002FEF8FE793E4215080409040E1F700C00E
:101E300000000CDE2FEF8FE794E0215080409040AF
:101E4000E1F700C000008091370270DD2FEF8FEFC7
:101E50009CE2215080409040E1F700C00000DADDB4
:101E60002DDEDFCD0895F2DD2FEF8FEF98E02150CA
:101E700080409040E1F700C000008091720256DD82
:101E80002FEF8FEF9AE1215080409040E1F700C0A2
:101E9000000014DE2FEF8FE794E021508040904047
:101EA000E1F700C000008091370240DD2FEF8FEF97
:101EB0009AE1215080409040E1F700C00000AACD97
:101EC00008958091720232DD2FEF8FEF9AE1215059
:101ED00080409040E1F700C00000B8DD2FEF8FE7B1
:101EE00094E0215080409040E1F700C000008091D4
:101EF00037021CDD2FEF8FEF9AE121508040904098
:101F0000E1F700C00000DADD85CD089510DE809194
:101F1000710246DD2FEF8FE79FE121508040904016
:101F2000E1F700C000003BDE2FEF8FE794E0215087
:101F300080409040E1F700C000008091330230DD26
:101F40002FEF8FE79FE1215080409040E1F700C0E4
:101F500000006ECD08958091710222DD2FEF8FE792
:101F600098E2215080409040E1F700C00000DFDDA2
:101F70002FEF8FE794E0215080409040E1F700C0C0
:101F80000000809133020CDD2FEF8FEF9AE121509A
:101F900080409040E1F700C0000001DE49CD089587
:101FA0001CDFB4CF0895D7DFD3CE0895C0DD2FEF67
:101FB0008FE794E0215080409040E1F700C000009E
:101FC00080917102EDDC2FEF8FEF9AE1215080407C
:101FD0009040E1F700C00000E2DD2FEF8FE794E0D2
:101FE000215080409040E1F700C000008091320213
:101FF000D7DC2FEF8FE79AE3215080409040E1F744
:1020000000C0000094DD2FEF8FE794E02150804066
:102010009040E1F700C0000080913302C1DC2FEF57
:102020008FEF9AE1215080409040E1F700C000001E
:10203000B6DDFECC08957BDD2FEF8FE794E02150D5
:1020400080409040E1F700C0000080913202A8DC9F
:102050002FEF8FEF9AE1215080409040E1F700C0D0
:1020600000009DDD2FEF8FE794E0215080409040ED
:10207000E1F700C000008091710292DC2FEF8FE742
:102080009AE3215080409040E1F700C000004FDD0E
:102090002FEF8FE794E0215080409040E1F700C09F
:1020A0000000809133027CDC2FEF8FEF9AE121500A
:1020B00080409040E1F700C0000071DDB9CC089588
:1020C0008CDE74CF0895B7DF43CE08952091790256
:1020D00030917A02C901019690937A028093790235
:1020E0008130910519F479DE61CF08958230910530
:1020F00019F473DE0BCF0895039711F4B4CE08954D
:1021000030937A0220937902089580917902909118
:102110007A028130910561F48EDF1ADE80917902B6
:1021200090917A02019790937A02809379020895B0
:102130008230910561F40FDF0BDE8091790290917E
:102140007A02019790937A02809379020895039717
:1021500051F4B7DE8091790290917A0201979093C1
:102160007A028093790208958F3F910509F018F45F
:102170008093280103C08FEF809328016F3F710582
:1021800009F018F460932A0108958FEF80932A01D3
:102190000895CF93DF931F92CDB7DEB780917B0276
:1021A00090917C02019690937C0280937B0282B195
:1021B0008F7089838981863009F07BC080914402C9
:1021C00090914502892B09F474C080915B02909133
:1021D0005C0240915D0250915E022091420230917A
:1021E0004302841B950B2817390708F0DFC02091A4
:1021F0005B0230915C0280915D0290915E028217D9
:10220000930728F580914402909145022091400265
:1022100030914102820F931F9093410280934002BC
:10222000209144023091450280913E0290913F02FC
:10223000821B930B90933F0280933E0260913E027B
:1022400070913F0280914002909141028DDF209178
:102250005D0230915E0280915B0290915C02821778
:10226000930708F0A3C02091440230914502809169
:10227000400290914102821B930B90934102809304
:102280004002809144029091450220913E0230919B
:102290003F02820F931F90933F0280933E02609112
:1022A0003E0270913F0280914002909141025CDFBA
:1022B0007DC08981893009F079C080914402909174
:1022C0004502892B09F472C080915B0290915C02F7
:1022D00040915D0250915E02209142023091430292
:1022E000841B950B2817390708F060C020915B020A
:1022F00030915C0280915D0290915E02821793079B
:1023000028F5809144029091450220913C02309141
:102310003D02820F931F90933D0280933C022091D7
:1023200044023091450280913A0290913B02821B17
:10233000930B90933B0280933A0260913A02709122
:102340003B0280913C0290913D020EDF20915D02A4
:1023500030915E0280915B0290915C02821793073C
:1023600028F5209144023091450280913C029091E1
:102370003D02821B930B90933D0280933C0280911F
:1023800044029091450220913A0230913B02820F23
:10239000931F90933B0280933A0260913A027091AE
:1023A0003B0280913C0290913D02DEDE10925E0283
:1023B00010925D0210925C0210925B0210926C020D
:1023C00010926B0210926E0210926D0210925A02DD
:1023D0001092590210925802109257021092620203
:1023E000109261020F90DF91CF91089510924502F3
:1023F00010924402809146029091470290935302BA
:10240000809352020895F2DF10925302109252020A
:1024100008958091460290914702909353028093D1
:10242000520210925E0210925D0210925C021092B3
:102430005B0210926C0210926B0210926E0210926C
:102440006D0210925A021092590210925802109284
:102450005702109262021092610281E090E0909324
:102460004502809344020895823091050CF065C0C6
:10247000623071050CF05DC08091100290911102E4
:102480000196909311028093100260910E02709158
:102490000F026F5F7F4F70930F0260930E0264CE46
:1024A000089563307105ACF0809110029091110293
:1024B0000197909311028093100260910E02709127
:1024C0000F026150710970930F0260930E024CCE9F
:1024D000089562307105A4F5809110029091110267
:1024E0000197909311028093100260910E027091F7
:1024F0000F026F5F7F4F70930F0260930E0234CE16
:10250000089563307105E4F08091100290911102FA
:102510000196909311028093100260910E027091C7
:102520000F026150710970930F0260930E021CCE6E
:10253000089503970CF0B5CFE4CF03970CF0B1CF1B
:102540000895823091050CF065C0623071050CF081
:102550005DC0809116029091170201969093170228
:102560008093160260911402709115026F5F7F4F85
:102570007093150260931402F7CD089563307105CE
:10258000ACF0809116029091170201979093170278
:1025900080931602609114027091150261507109C6
:1025A0007093150260931402DFCD089562307105B7
:1025B000A4F580911602909117020197909317024B
:1025C0008093160260911402709115026F5F7F4F25
:1025D0007093150260931402C7CD0895633071059E
:1025E000E4F08091160290911702019690931702E1
:1025F0008093160260911402709115026150710966
:102600007093150260931402AFCD089503970CF0F8
:10261000B5CFE4CF03970CF0B1CF0895E1E8F0E037
:1026200010828CEF8093850081E08093840093E09A
:10263000909389008FEF8093880090938B00809314
:102640008A0090938D0080938C00909387008093F4
:1026500086008BEA80938000109282008CE0808359
:102660000895E1E2F1E010828FEF8093250191E07F
:102670009093240193E090932901809328019093F3
:102680002B0180932A0190932D0180932C0189EADC
:10269000809320018BE080830895E1EAF0E01082CE
:1026A0008CEF8093A50081E08093A40093E0909349
:1026B000AB008FEF8093AA009093AD008093AC00A5
:1026C0009093A7008093A6008BEA8093A0001092BD
:1026D000A2008CE0808308955058BB27AA270ED013
:1026E0004DC13ED130F043D120F031F49F3F11F481
:1026F0001EF433C10EF4E095E7FB29C1E92F4FD159
:1027000080F3BA17620773078407950718F071F40E
:102710009EF567C10EF4E0950B2EBA2FA02D0B018C
:10272000B90190010C01CA01A0011124FF27591B16
:1027300099F0593F50F4503E68F11A16F040A22F1C
:10274000232F342F4427585FF3CF4695379527958D
:10275000A795F0405395C9F77EF41F16BA0B620B8C
:10276000730B840BBAF09150A1F0FF0FBB1F661FD3
:10277000771F881FC2F70EC0BA0F621F731F841F16
:1027800048F4879577956795B795F7959E3F08F03C
:10279000B3CF9395880F08F09927EE0F97958795FB
:1027A00008950CD0EBC0E3D040F0DAD030F021F443
:1027B0005F3F19F0CCC0511115C1CFC0F0D098F3D4
:1027C0009923C9F35523B1F3951B550BBB27AA27B2
:1027D00062177307840738F09F5F5F4F220F331F24
:1027E000441FAA1FA9F333D00E2E3AF0E0E830D0F0
:1027F00091505040E695001CCAF729D0FE2F27D0F3
:10280000660F771F881FBB1F261737074807AB07C0
:10281000B0E809F0BB0B802DBF01FF2793585F4F35
:102820002AF09E3F510568F092C0DCC05F3FECF398
:10283000983EDCF3869577956795B795F7959F5FFA
:10284000C9F7880F911D9695879597F90895E1E04E
:10285000660F771F881FBB1F621773078407BA07AD
:1028600020F0621B730B840BBA0BEE1F88F7E09508
:10287000089504D06894B111B5C0089598D088F037
:102880009F5790F0B92F9927B751A0F0D1F0660F5C
:10289000771F881F991F1AF0BA95C9F712C0B13077
:1028A00081F09FD0B1E008959CC0672F782F8827D2
:1028B000B85F39F0B93FCCF3869577956795B395B6
:1028C000D9F73EF490958095709561957F4F8F4F25
:1028D0009F4F0895E89409C097FB3EF4909580952A
:1028E000709561957F4F8F4F9F4F9923A9F0F92FD6
:1028F00096E9BB279395F695879577956795B79554
:10290000F111F8CFFAF4BB0F11F460FF1BC06F5F39
:102910007F4F8F4F9F4F16C0882311F096E911C04B
:10292000772321F09EE8872F762F05C0662371F06C
:1029300096E8862F70E060E02AF09A95660F771F80
:10294000881FDAF7880F9695879597F9089597F974
:102950009F6780E870E060E008959FEF80EC089545
:1029600000240A941616170618060906089500246E
:102970000A9412161306140605060895092E0394E8
:10298000000C11F4882352F0BB0F40F4BF2B11F45C
:1029900060FF04C06F5F7F4F8F4F9F4F089557FDBB
:1029A0009058440F551F59F05F3F71F04795880FBD
:1029B00097FB991F61F09F3F79F087950895121654
:1029C00013061406551FF2CF4695F1DF08C0161600
:1029D00017061806991FF1CF8695710561050894B1
:1029E0000895E894BB2766277727CB0197F90895C8
:1029F0000BD0C4CFB5DF28F0BADF18F0952309F06B
:102A0000A6CFABCF1124EECFCADFA0F3959FD1F3B1
:102A1000950F50E0551F629FF001729FBB27F00D8C
:102A2000B11D639FAA27F00DB11DAA1F649F6627E1
:102A3000B00DA11D661F829F2227B00DA11D621F30
:102A4000739FB00DA11D621F839FA00D611D221FEA
:102A5000749F3327A00D611D231F849F600D211DCE
:102A6000822F762F6A2F11249F5750408AF0E1F071
:102A700088234AF0EE0FFF1FBB1F661F771F881FBA
:102A800091505040A9F79E3F510570F060CFAACFFA
:102A90005F3FECF3983EDCF3869577956795B795A5
:102AA000F795E7959F5FC1F7FE2B880F911D9695CF
:102AB000879597F90895A8E1B0E042E050E006C09C
:102AC0000196272F12D010C0DC01CB01FC01F9992F
:102AD000FECF06C0F2BDE1BDF89A319600B40D926A
:102AE00041505040B8F70895262FF999FECF92BD76
:102AF00081BDF89A019700B4021639F01FBA20BDC3
:102B00000FB6F894FA9AF99A0FBE0895F894FFCF89
:102B1000960001000A000A000A000A0018005A0084
:102B20005A004B00500050009600050004002A0097
:102B3000640064001D001E0064006400C800C8003A
:102B40004164BE783469CD643C00FF00FF00FF00A3
:0A2B5000FF0005000100F4017E0003
:040000050080020273
:00000001FF
